:020000040000FA
:04000000FBEF0AF018
:10060000003F065B4F666D7D077F6F777C395E79B3
:10061000710A496E6372656D656E746163616F2006
:100620007265616C697A61646100417065727465BC
:10063000202A207061726100496E696369616E648D
:100640006F2E2E2E004D6564696E646F2E2E2E0067
:100650006261746964617320646F0073696D756CA5
:100660006172206173005072657373696F6E65000B
:100670004167756172646500636F726163616F00E9
:070680007265736574000050
:1006880002BE52EF03F0025007E1080E015CD8B039
:1006980050EF03F052EF03F07CEF03F00350041027
:1006A800D8B459EF03F05BEF03F06BEF03F001C030
:1006B80005F0010E066E052A64EF03F0D8900636A1
:1006C800052E62EF03F0065080126AEF04F001C0B5
:1006D80005F0010E066E052A74EF03F0D890063671
:1006E800052E72EF03F00650FF0A80166AEF04F039
:1006F80002BE8AEF03F0025007E1100E015CD8B089
:1007080088EF03F08AEF03F0B8EF03F0F80E012644
:10071800FF0E022203500410D8B495EF03F097EFB0
:1007280003F0A7EF03F001C005F0010E066E052ADD
:10073800A0EF03F0D8900636052E9EEF03F0065082
:1007480081126AEF04F001C005F0010E066E052A59
:10075800B0EF03F0D8900636052EAEEF03F0065042
:10076800FF0A81166AEF04F002BEC6EF03F00250DA
:1007780007E1180E015CD8B0C4EF03F0C6EF03F030
:10078800F4EF03F0F00E0126FF0E022203500410CE
:10079800D8B4D1EF03F0D3EF03F0E3EF03F001C0D7
:1007A80005F0010E066E052ADCEF03F0D890063638
:1007B800052EDAEF03F0065082126AEF04F001C04A
:1007C80005F0010E066E052AECEF03F0D890063608
:1007D800052EEAEF03F00650FF0A82166AEF04F0CE
:1007E80002BE02EF04F0025007E1200E015CD8B00F
:1007F80000EF04F002EF04F030EF04F0E80E0126F9
:10080800FF0E022203500410D8B40DEF04F00FEFCE
:1008180004F01FEF04F001C005F0010E066E052A72
:1008280018EF04F0D8900636052E16EF04F006509F
:1008380083126AEF04F001C005F0010E066E052A66
:1008480028EF04F0D8900636052E26EF04F006505F
:10085800FF0A83166AEF04F002BE3EEF04F002506E
:1008680007E1280E015CD8B03CEF04F03EEF04F03D
:100878006AEF04F0E00E0126FF0E02220350041076
:10088800D8B449EF04F04BEF04F05BEF04F001C07B
:1008980005F0010E066E052A54EF04F0D8900636CE
:1008A800052E52EF04F0065084126AEF04F001C0DE
:1008B80005F0010E066E052A64EF04F0D89006369E
:1008C800052E62EF04F00650FF0A8416120002BEDD
:1008D80079EF04F0025007E1080E015CD8B077EF19
:1008E80004F079EF04F0A3EF04F003500410D8B437
:1008F80080EF04F082EF04F092EF04F001C005F0FD
:10090800010E066E052A8BEF04F0D8900636052EE8
:1009180089EF04F00650921291EF05F001C005F03E
:10092800010E066E052A9BEF04F0D8900636052EB8
:1009380099EF04F00650FF0A921691EF05F002BEF7
:10094800B1EF04F0025007E1100E015CD8B0AFEF30
:1009580004F0B1EF04F0DFEF04F003500410D8B452
:10096800B8EF04F0BAEF04F0CCEF04F001C005F0E2
:10097800F80E0526010E066E052AC5EF04F0D8907C
:100988000636052EC3EF04F00650931291EF05F0DA
:1009980001C005F0F80E0526010E066E052AD7EFF0
:1009A80004F0D8900636052ED5EF04F00650FF0A5D
:1009B800931691EF05F002BEEDEF04F0025007E147
:1009C800180E015CD8B0EBEF04F0EDEF04F01BEF6C
:1009D80005F003500410D8B4F4EF04F0F6EF04F077
:1009E80008EF05F001C005F0F00E0526010E066EB1
:1009F800052A01EF05F0D8900636052EFFEF04F022
:100A08000650941291EF05F001C005F0F00E05268E
:100A1800010E066E052A13EF05F0D8900636052E4E
:100A280011EF05F00650FF0A941691EF05F002BE8B
:100A380029EF05F0025007E1200E015CD8B027EF3E
:100A480005F029EF05F057EF05F003500410D8B46E
:100A580030EF05F032EF05F044EF05F001C005F086
:100A6800E80E0526010E066E052A3DEF05F0D89022
:100A78000636052E3BEF05F00650951291EF05F06E
:100A880001C005F0E80E0526010E066E052A4FEF97
:100A980005F0D8900636052E4DEF05F00650FF0AF2
:100AA800951691EF05F002BE65EF05F0025007E1DB
:100AB800280E015CD8B063EF05F065EF05F091EF03
:100AC80005F003500410D8B46CEF05F06EEF05F094
:100AD80080EF05F001C005F0E00E0526010E066E58
:100AE800052A79EF05F0D8900636052E77EF05F040
:100AF8000650961291EF05F001C005F0E00E0526AC
:100B0800010E066E052A8BEF05F0D8900636052EE5
:100B180089EF05F00650FF0A96161200000E126EB5
:100B2800000E116E000E1B6E000E1A6EC30E926E32
:100B3800030E936E000E946E000E956E000E966E68
:100B480005EC09F0450E076E060E086E64EC0AF017
:100B580011EC0BF011EC0AF02AEC0BF01BEC0BF08B
:100B680025EC0BF001C013F002C014F029EF06F0D9
:100B7800114A122AB8EC06F025EC0BF013500118B4
:100B880009E114500218D8B4CCEF05F0CEEF05F007
:100B9800FEEF05F025EC0BF001C013F002C014F0D5
:100BA80025EC0BF001A0DBEF05F0DDEF05F0FEEF23
:100BB80005F01A4A1B2A030E106E200E0F6ED5EC94
:100BC8000AF0000E176E9482000E026E280E016E57
:100BD8008CEC0AF09492172A020E1764F6EF05F0CF
:100BE800F8EF05F0E7EF05F0110E026E060E036E42
:100BF8003CEC0AF0000E0F6E1AC001F01BC002F0A8
:100C0800000E046E0A0E036EA3EC08F00150E5EC2A
:100C180009F0010E0F6E1AC009F01BC00AF0000E91
:100C28000C6E0A0E0B6E5FEC09F00950E5EC09F04A
:100C380075EC07F0000E1C6E1C2A1C28D8A427EFA0
:100C480006F029EF06F020EF06F012BE35EF06F0A9
:100C5800A00E115C0F0E1258D8A035EF06F037EF32
:100C680006F0BCEF05F01AC001F01BC002F0000E40
:100C7800046E060E036EE8EC0AF001C018F002C01C
:100C880019F0000E166E000E156E11EC0AF0000E2B
:100C98000F6E18C001F019C002F0000E046E640E49
:100CA800036EA3EC08F00150E5EC09F0010E0F6E9D
:100CB800000E046E0A0E036E18C001F019C002F08F
:100CC800A3EC08F001C009F002C00AF0000E0C6E97
:100CD8000A0E0B6E5FEC09F00950E5EC09F0020E04
:100CE8000F6E18C009F019C00AF0000E0C6E0A0E3B
:100CF8000B6E5FEC09F00950E5EC09F075EC07F0B4
:100D0800000E1C6E1C2A1C28D8A48DEF06F08FEF4D
:100D180006F086EF06F0154A162A16BE9DEF06F075
:100D2800F40E155C010E1658D8A09DEF06F09FEF43
:100D380006F049EF06F0010EC0EC0AF0800EC0EC98
:100D48000AF0660E076E060E086E64EC0AF0C00E16
:100D5800C0EC0AF0800E076E060E086E64EC0AF00E
:100D6800B4EF06F000EF00F083CF06F00F0E9512F7
:100D7800000E0A6EF80E93160AC001F0010E026EFC
:100D8800012AC9EF06F0D8900236012EC7EF06F007
:100D980002509312070E81120AC001F0010E026E72
:100DA800012AD9EF06F0D8900236012ED7EF06F0C7
:100DB8000250FF0A8116000E086E000E076E074AE1
:100DC800082A08BEF1EF06F0085009E10A0E075C90
:100DD800D8A0F1EF06F0F3EF06F0E3EF06F0000E0F
:100DE800096E09C001F0010E026E012AFEEF06F03D
:100DF800D8900236012EFCEF06F002508314000949
:100E0800D8A409EF07F00BEF07F023EF07F00A501B
:100E1800040DF3500924016E010E026E000E036EDC
:100E2800012A1AEF07F0D89002360336012E17EF81
:100E380007F002501F12035020123DEF07F00A502E
:100E4800040DF3500924016E010E026E000E036EAC
:100E5800012A32EF07F0D89002360336012E2FEF21
:100E680007F0021C046E031C056E04501F16055083
:100E78002016092A030E096444EF07F046EF07F02D
:100E8800F5EF06F00A2A020E0A644DEF07F04FEF5D
:100E980007F0BEEF06F01F501D1807E120501E187E
:100EA800D8A459EF07F05BEF07F05EEF07F02806CC
:100EB80064EF07F00A0E286E1FC01DF020C01EF058
:100EC8002850D8A46AEF07F06CEF07F070EF07F02E
:100ED8001DC021F01EC022F006C083FF000E956ED3
:100EE8001200000E956E000E026E020E016E000ECC
:100EF800046E000E036E44EC03F0000E026E030E47
:100F0800016E000E046E000E036E44EC03F0000E3A
:100F1800026E040E016E000E046E000E036E44ECA9
:100F280003F0000E026E050E016E000E046E000E38
:100F3800036E44EC03F0000E836EFFEF07F0010E22
:100F48002624F66EF76A060EF7220800F5CF83FF0F
:100F5800000E026E020E016E000E046E010E036E8C
:100F680044EC03F0010E276E1CEF08F0010E252457
:100F7800F66EF76A060EF7220800F5CF83FF000E1B
:100F8800026E030E016E000E046E010E036E44EC39
:100F980003F0020E276E1CEF08F0010E2424F66EF3
:100FA800F76A060EF7220800F5CF83FF000E026EDF
:100FB800040E016E000E046E010E036E44EC03F085
:100FC800030E276E1CEF08F0010E2324F66EF76A55
:100FD800060EF7220800F5CF83FF000E026E050EFD
:100FE800016E000E046E010E036E44EC03F0000E59
:100FF800276E1CEF08F02750076E086A0850000A91
:10100800D8B409EF08F0FBEF07F00750000AD8B48E
:10101800A3EF07F0010AD8B4BAEF07F0030AD8B46F
:10102800D1EF07F0010AD8B4E8EF07F0FBEF07F0BB
:101038001200000E0A6E08BE26EF08F024EF08F032
:1010480030EF08F0081E071E061E056C000E06226B
:1010580007220822010E0A6E04BE37EF08F035EFAA
:1010680008F041EF08F0041E031E021E016C000E7A
:10107800022203220422010E0A1A000E0B6E000E31
:101088000C6E000E0D6E000E0E6E05500610071049
:101098000810D8B452EF08F054EF08F08AEF08F0BF
:1010A800010E096E5EEF08F0D89005360636073651
:1010B8000836092A08AE63EF08F065EF08F058EF24
:1010C80008F0D8900B360C360D360E360550015CFC
:1010D800065002580750035808500458D8A077EF14
:1010E80008F079EF08F082EF08F00550015E06502D
:1010F800025A0750035A0850045A0B80D8900832F5
:10110800073206320532092E65EF08F00A50D8B4C6
:1011180090EF08F092EF08F09AEF08F00E1E0D1EFF
:101128000C1E0B6C000E0C220D220E220BC001F0BF
:101138000CC002F00DC003F00EC004F01200000E47
:10114800066E04BEACEF08F0AAEF08F0B2EF08F0A4
:10115800036C041ED8B0042A010E066E02BEB9EF55
:1011680008F0B7EF08F0BFEF08F0016C021ED8B026
:10117800022A010E061A000E086E000E076E0350B2
:101188000410D8B4CAEF08F0CCEF08F0F4EF08F078
:10119800010E056ED4EF08F0D89003360436052A00
:1011A80004AED9EF08F0DBEF08F0D0EF08F0D890E4
:1011B800073608360350015C04500258D8A0E7EF00
:1011C80008F0E9EF08F0EEEF08F00350015E045074
:1011D800025A0780D89004320332052EDBEF08F05C
:1011E8000650D8B4FAEF08F0FCEF08F000EF09F069
:1011F800076C081ED8B0082A07C001F008C002F022
:101208001200B7EC09F0800EC0EC0AF0380E076E39
:10121800060E086E64EC0AF0010E026EF40E016E02
:101228008CEC0AF0C00EC0EC0AF0700E076E060EC9
:10123800086E64EC0AF0030E026EE80E016E8CEC88
:101248000AF0010EC0EC0AF0800EC0EC0AF02A0E7B
:10125800076E060E086E64EC0AF0C00EC0EC0AF0C9
:101268005B0E076E060E086E64EC0AF0070E026E3F
:10127800D00E016E8CEC0AF0010EC0EC0AF0800E64
:10128800C0EC0AF0500E076E060E086E64EC0AF009
:10129800C00EC0EC0AF0780E076E060E086E64ECFD
:1012A8000AF0070E026ED00E016E8CEC0AF0010EE9
:1012B800C0EC0AF01200000E0E6E0ABE68EF09F0CC
:1012C80066EF09F06EEF09F0096C0A1ED8B00A2A19
:1012D800010E0E6E0CBE75EF09F073EF09F079EF91
:1012E80009F00B6C0C1ED8B00C2A0B500C10D8B49B
:1012F80080EF09F082EF09F0A6EF09F0010E0D6EFC
:101308008AEF09F0D8900B360C360D2A0CAE8FEF09
:1013180009F091EF09F086EF09F00B50095C0C50C9
:101328000A58D8A09AEF09F09CEF09F0A0EF09F04D
:101338000B50095E0C500A5AD8900C320B320D2E05
:1013480091EF09F00E50D8B4ACEF09F0AEEF09F008
:10135800B2EF09F0096C0A1ED8B00A2A09C009F0D0
:101368000AC00AF0120084928494000E026E140ED1
:10137800016E8CEC0AF08482380EC0EC0AF0000E84
:10138800026E050E016E8CEC0AF0380EC0EC0AF005
:10139800000E026E010E016E8CEC0AF0380EC0ECE5
:1013A8000AF0080EC0EC0AF00F0EC0EC0AF0010EAD
:1013B800C0EC0AF0380EC0EC0AF0800EC0EC0AF05F
:1013C8001200106E0F50D8A4ECEF09F0EEEF09F000
:1013D800F0EF09F010C026F00F04D8A4F6EF09F0DA
:1013E800F8EF09F0FAEF09F010C025F0020E0F1817
:1013F800D8A401EF0AF003EF0AF005EF0AF010C0D5
:1014080024F0030E0F18D8A40CEF0AF00EEF0AF020
:1014180010EF0AF010C023F01200000E026E020E48
:10142800016E000E046E000E036E6BEC04F0000EED
:10143800026E030E016E000E046E000E036E6BEC5E
:1014480004F0000E026E040E016E000E046E000E13
:10145800036E6BEC04F0000E026E050E016E000EBA
:10146800046E000E036E6BEC04F0000E956E120015
:10147800000E066E4FEF0AF006500224046E000EAE
:101488000320056E04C0F6FF05C0F7FF0800F550FD
:1014980006EC0BF0062A06500224046E000E032008
:1014A800056E04C0F6FF05C0F7FF0800F5500009F7
:1014B800D8A461EF0AF063EF0AF040EF0AF01200D7
:1014C800000E0B6E77EF0AF00B500724096E000E22
:1014D80008200A6E09C0F6FF0AC0F7FF0800F55099
:1014E800ABEC0AF00B2A0B500724096E000E0820FB
:1014F8000A6E09C0F6FF0AC0F7FF0800F550000998
:10150800D8A489EF0AF08BEF0AF068EF0AF012000E
:10151800000E046E000E036E9FEF0AF0000E056EBB
:10152800052AC70E05649BEF0AF09DEF0AF094EFB9
:101538000AF0034A042A0150035C02500458D8A058
:10154800A8EF0AF0AAEF0AF092EF0AF01200066E6E
:10155800848206502FEC0BF08484000E026E030E7A
:10156800016E8CEC0AF08492000E026E030E016E7E
:101578008CEC0AF084821200066E848206502FECEE
:101588000BF08494000E026E030E016E8CEC0AF0D0
:101598008492000E026E030E016E8CEC0AF08482B7
:1015A8001200480E016EE80E026E010E036E000E68
:1015B800046E0FC005F010C006F0076A086A1DEC3B
:1015C80008F00104CB6E120001500302F3CF05F0BE
:1015D800F4CF06F001500402F3500626025003022D
:1015E800F350062605C001F006C002F0120000EE16
:1015F8001DF00C0EEE6AE806FDE1000EF86E000123
:1016080092EF05F0016E01C0ADFFACA20EEF0BF03A
:1016180010EF0BF009EF0BF01200670EAF6EAC9CE9
:10162800AC8AAC98AC84AB8EAB9CAB88120094921D
:101638009494030ECA12CA840C0EBD120C0EBA1270
:10164800120021C001F022C002F01200070E93160A
:0E1658000F0E95121200016E01C083FF1200EA
:020000040020DA
:08000000FFFFFFFFFFFFFFFF00
:020000040030CA
:0E000000FF071F1FFF8385FF0FC00FE00F409B
:00000001FF
